:020000041000EA
:1000000000B5324B212058609868022188439860DF
:10001000D860186158612E4B002199600221596106
:100020000121F02299502B49196001219960352056
:1000300000F044F80222904214D00621196600F024
:1000400034F8196E01211966002018661A6600F04E
:100050002CF8196E196E196E052000F02FF8012189
:100060000842F9D1002199601B49196000215960AB
:100070001A491B48016001219960EB211966A021F2
:10008000196600F012F800219960164914480160C1
:100090000121996001BC002800D000471248134993
:1000A000086003C880F30888084703B5996A0420EC
:1000B0000142FBD001200142F8D103BD02B5186610
:1000C0001866FFF7F2FF186E186E02BD00000240BE
:1000D000000000180000070000035F00212200005C
:1000E000F4000018222000A00001001008ED00E03C
:1000F00000000000000000000000000074B24E7A12
:1001000000200420F7010010C3010010C5010010F9
:10011000C1010010C1010010C1010010C101001097
:10012000C1010010C1010010C1010010C701001081
:10013000C1010010C1010010C9010010CB01001065
:10014000CD010010CD010010CD010010CD01001037
:10015000CD010010CD010010CD010010CD01001027
:10016000CD010010CD010010CD010010CD01001017
:10017000CD010010CD010010CD010010CD01001007
:10018000CD010010CD010010CD010010CD010010F7
:10019000CD010010CD010010CD010010CD010010E7
:1001A000CD010010CD010010CD010010CD010010D7
:1001B000CD010010CD010010CD010010CD010010C7
:1001C00000BE00BE00BE00BE00BE00BEEFF3058054
:1001D000103800BEF2EB887150AD001080AD0010F9
:1001E0003802001090A31AE71E481F49086006C88D
:1001F00081F3088810471D480068002801D019487D
:10020000F3E70DA40ECC002902D000F012F8F9E7B4
:100210001749184A002000E001C19142FCD116495B
:100220008847164988471649884700BEFDE701C937
:1002300001C29A42FBD3704780AD0010C00000207D
:1002400030120020F0BE0010000004200000042046
:10025000F0BE001000100420001004200000000078
:10026000704700000000000008ED00E0000000D032
:100270003012002044230020454E00107508001065
:10028000054E0010F8B5C04606480749091A8B10FC
:10029000C90FC91810B5491003D0044B002B00D06A
:1002A000984710BD301200203012002000000000DE
:1002B000054B10B5002B03D00449054800E000BFF2
:1002C000FFF7E2FF10BDC04600000000AC20002098
:1002D000FC91001010B5040002F008F8002910D0BD
:1002E000FA229200002302F015FC154B1B68C31A7A
:1002F000C82B05D9124B1860062C07D0052C09D045
:1003000010BDFA21890002F0C7FBEEE700210800CA
:1003100002F07EFA0B4B1988013103220A401A8041
:100320001A88094B9200D258084B1A60186803F0DB
:10033000B9FB02000B00064804F0DAFEE0E7C04615
:100340005020002036230020F8A00010DC0B0020F5
:100350000092001010B504001F2100F0E3FD002200
:100360000021200000F0F8FD0021200000F0E8FE50
:1003700010BD000010B50B480B4907F0D7FF032153
:100380000E2000F0CFFD03210F2000F0CBFD002256
:1003900001210E2000F0E0FD002201210F2000F0DD
:1003A000DBFD10BDC00C0020801A060010B582B025
:1003B0000C4C0D4B01933C230093002340228021E1
:1003C000200000F0A1FA200000F0C3FA200000F0A5
:1003D00026FB0021200000F063FB200000F01FFB43
:1003E00002B010BDFC220020C00C002010B507F0A8
:1003F00049FE1C20FFF7AEFF10BD10B5052000F030
:10040000B3FED02424062023A3620022012105206C
:1004100000F0A2FD062000F0A7FE4023A362002208
:100420000121062000F098FD10BD000070B5164BAC
:100430001A6880239B015340E022D2011340134AE3
:1004400013600025002416E0114B04221A600E4BA5
:100450001B68DB05FBD50C4B5B681B04180C03F019
:10046000CBFA011C201C03F061FA041C01200021BE
:1004700001F040FE0135074B9D42E5DD0649201C99
:1004800003F057FA70BDC04600C0044000D00440DD
:1004900000E004404FC300000050434770B5041C07
:1004A000074B1868211C03F058FA051C211C05484D
:1004B00003F039FA011C281C03F03BFA70BDC0465A
:1004C000DC0B002000F07F45F0B5DE4657464E4677
:1004D0004546E0B583B082468B46C16060495846C8
:1004E00003F078FA002834D15E49584603F06CFADC
:1004F000002846D00021584603F074FA00282CD07A
:100500005F460023994635E05649381C03F011FA3E
:10051000071C01239C46E1445149381C03F05AFA58
:100520000028F1D1381C03F089FA04000A2102F0F6
:100530008BFA534618600A21200002F085FA5346D0
:1005400059604A469A600026454B9846002301931D
:100550001CE05F4600239946DEE75F46002399468C
:10056000E0E74049381C03F0F8F9071C01235B421F
:100570009C46E1443B49381C03F026FA0028F0D1A0
:10058000D0E75F4600239946CCE70136172E15DCED
:10059000354BB200D058334903F0DFF9051C011C7C
:1005A000381C03F0C0F944006408211C404603F0E5
:1005B00019FA0028E9D0A0460195E6E7019803F072
:1005C0003DFA06000A2102F03FFA534618600A215C
:1005D000300002F039FA53465960484602F02EFDC9
:1005E00002000B000020214903F0B2F804000D00C6
:1005F000300002F023FD22002B0002F0ACFC02F0E0
:1006000061FD061C53461861002103F0D5F900284E
:1006100022D1311C584603F086F94000400803F00F
:1006200041FA04000D00301C03F03CFA02000B00FC
:100630002000290002F075FC00220D4B02F08BFC1B
:1006400002F040FD53465861504603B0F0BCBB4633
:10065000B246A946A046F0BD002352465361F3E7D7
:100660000000C8420000204198A000100000244073
:100670000000594000E001300378002B03D08B428A
:10068000F9D10270F7E7704784B0F0B595B01A90D1
:100690001B911C921D931D9803F004FA02000B009D
:1006A000694D2900684604F067FB2C222E2168461C
:1006B000FFF7E0FF0FAF6946380008F08BFB1E988C
:1006C00003F0F0F902000B002900684604F054FB27
:1006D0002C222E216846FFF7CDFF0AAE6946300076
:1006E00008F078FB1F9803F0DDF902000B00574972
:1006F000684604F041FB2C222E216846FFF7BAFF22
:1007000005AD6946280008F065FB514C002120002A
:1007100000F0C6F94F4900230022200000F042FA01
:10072000002346223900200000F03CFA4A490A23FF
:100730000022200000F036FA0A2346223100200071
:1007400000F030FA454914230022200000F02AFA74
:10075000142346222900200000F024FA002440E05F
:100760003F493B4D23230022280000F01BFA3D4B5C
:10077000A200D15823233C22280000F013FA3A4B60
:1007800062001219D15C9B185A7812020A439978B8
:1007900009041143FE229205002000F09CFB25E095
:1007A00032492B4D2D230022280000F0FBF92D4B60
:1007B000A200D1582D233C22280000F0F3F92A4B47
:1007C00062001219D15C9B185A7812020A43997878
:1007D00009041143FE229205022000F07CFB08E090
:1007E0000134092C28DC1A9BA342B9D01B9BA342DD
:1007F000D6D01C9BA342F3D11D49154D37230022AF
:10080000280000F0CFF9174BA200D15837233C2223
:10081000280000F0C7F9144B62001219D15C9B1834
:100820005A7812020A43997809041143FE2292056C
:10083000042000F050FBD3E7054800F0F0F815B0B5
:10084000F0BC08BC04B018472C9200103492001081
:10085000FC2200203C9200104492001050920010A4
:1008600058920010900B0020B80B002060920010EE
:100870006892001010B588B004F004FCFFF77AFD10
:10088000FFF794FDFFF7B2FDFFF7B7FD072000F07B
:10089000ABFA1B4C230001220421052000F0ECFBE5
:1008A000230001220421062000F0E6FB01F01EFDDA
:1008B00000291ED0FA229200002302F02BF9040036
:1008C000FFF7B4FDFFF7EAFD0E4B1860196802A8A8
:1008D000FFF7FAFDAF239B009C42E7D306AB6A46C5
:1008E00003CB03C202980399049A059BFFF7CCFE41
:1008F000DCE7FA21890002F0CFF80400E0E7C04607
:10090000D5020010DC20002010B5040002AB1B78DB
:1009100001704270D2088270C370039B43605143E0
:10092000481C2061012103F01DF9E06040230370A1
:100930004033237510BD00B583B0417502001432F9
:10094000C178406800230093023307F019FD03B01B
:1009500000BD10B50400AE21FFF7EDFF20212000FF
:10096000FFF7E9FF01212000FFF7E5FF402120000C
:10097000FFF7E1FFA1212000FFF7DDFFA821200004
:10098000FFF7D9FF3F212000FFF7D5FFC821200046
:10099000FFF7D1FFD3212000FFF7CDFF002120007A
:1009A000FFF7C9FFDA212000FFF7C5FF1221200061
:1009B000FFF7C1FFD5212000FFF7BDFF80212000F8
:1009C000FFF7B9FFD9212000FFF7B5FFF121200083
:1009D000FFF7B1FFDB212000FFF7ADFF3021200042
:1009E000FFF7A9FF81212000FFF7A5FFFF212000CD
:1009F000FFF7A1FFA4212000FFF79DFFA621200003
:100A0000FFF799FF8D212000FFF795FF14212000AB
:100A1000FFF791FFAF212000FFF78DFF10BD10B54C
:100A200082B004002121FFF786FF00212000FFF79C
:100A300082FF21780139C9B22000FFF77CFF222113
:100A40002000FFF778FF00212000FFF774FFA17856
:100A50000139C9B22000FFF76EFFE2682369E1782F
:100A600060680024009407F08BFC02B010BD10B544
:100A7000C900D4080919013107242240002B06D0EF
:100A8000C468635C012090400343635410BDC06898
:100A9000445C01239340DB435BB223404354F5E7BE
:100AA000F8B505000F0000260CE03B0032002100E5
:100AB0002800FFF7DCFF0134E4B22878A042F4D824
:100AC0000136F6B26B78B34201D90024F5E7F8BDE0
:100AD000F0B5D6464F464646C0B507009046994603
:100AE0000B00213BDAB2592A03D893002B4AD35882
:100AF0009F4600239A4603E03639C9008BB29A46D6
:100B00008C239B009A4547D3E0BCBA46B146A84621
:100B1000F0BD2F39C9008BB29A46F1E73C39C900C4
:100B20008BB29A46ECE780239B009A46E8E7822343
:100B30009B009A46E4E784239B009A46E0E78623DD
:100B40009B009A46DCE788239B009A46D8E78A23D5
:100B50009B009A46D4E7FC235B009A46D0E701232A
:100B6000A34033405A1E9341DBB24A46A218D2B288
:100B700041466918C9B23800FFF779FF0134E4B281
:100B8000072CECD90135EDB2072DBDD853465B19C2
:100B9000034AD65C0024F3E70025F5E708A100101E
:100BA00070A20010F8B507000E0014001D0004E04C
:100BB0002B0008337A78934213DA3178002910D069
:100BC00001362B0022003800FFF782FF0834E4B220
:100BD000220008323B789A42EADB0835EDB2002465
:100BE000E6E7F8BD70B50600081CEC21890502F0A7
:100BF0009DFE051C02F050FF84B2002C12D0200094
:100C000002F0F5FE011C281C02F08DFE8721C905AB
:100C100002F0A3FE02F040FFC3B21B0224041C43F7
:100C2000346070BD0023F8E710B5040010220021E5
:100C300002F0ACFF80235B022360F8235B02636059
:100C40008023DB02A360C0231B03A360200010BD30
:100C500070B504000D00FFF7E7FFEA1C636809495F
:100C60000B40ED012B43120313436360E268D20093
:100C7000D208802189050A43E260034A1340636079
:100C8000200070BD7F00FEFFFFFFFF9FF0B5CE4646
:100C9000474680B587B005000E0090461C00274BE4
:100CA000C3181B0DD9B20631C9B2200000F03AF9C1
:100CB00001239946009322003100280007F056FCDA
:100CC00002AF41463800FFF7C3FF059B1C4A1340A3
:100CD000A402F822D2011440234305930499194B2E
:100CE0000B40194A13430493184B19400A438023BD
:100CF000DB0513430493052001F052FC02F077FE5C
:100D0000041C13490E9802F028FE011C201C02F05E
:100D100010FE011C3800FFF765FF3B004246310022
:100D2000280007F07DFC2A684B46B34013432B6034
:100D300007B0C0BCB946B046F0BDC0460000E0AF49
:100D4000FF83FFFFFFFFF5C100000A10FFFFF50161
:100D50000000204170B5002528E0164B1868164B9E
:100D60001C68164B6A005219D65C4268210010318B
:100D700001238B401342F8D1221D920016500F4AD6
:100D8000690049195218517842681342FCD1221D5A
:100D900092001150094A6900491952189178426825
:100DA0001342FCD10434A40021500135182DD4D9AC
:100DB00070BDC046A8200020F8220020542000204A
:100DC00010B5002308E0074A5900C918541800203C
:100DD00060708854A0700133182BF4D9FFF7BAFF64
:100DE00010BDC04654200020F0B583B005000D4969
:100DF0000D4E300007F0A2FB04000C4F3E600021B6
:100E0000300007F07FFB0100094B18603868094B80
:100E100000932B002200FFF739FFFFF7D1FF03B04B
:100E2000F0BDC046A0A4001000002050A820002063
:100E3000F822002000504349CB0707D58B005B18F0
:100E40000422121A9B181820C01A70478A005218E0
:100E500010181823181AF8E7042805D8002905DB0C
:100E6000042905DD002000E0002070470020FCE799
:100E70000120FAE730B583B004000D000192FFF7BE
:100E8000EBFF00280ED029002000FFF7D5FF01A9B5
:100E90000C78054B420010181A1854704C78C45442
:100EA0008B78937003B030BD5420002030B583B0F0
:100EB0000500019104280CD903B030BD019A290026
:100EC0002000FFF7D7FF0134042CF7DDFFF742FFC6
:100ED000F2E70024F8E770B582B0060001AC01919A
:100EE000151C207802F088FD291C02F036FD02F066
:100EF000D3FD2070607802F07FFD291C02F02DFDEB
:100F000002F0CAFD6070A07802F076FD291C02F0A4
:100F100024FD02F0C1FDA07001993000FFF7C6FF6B
:100F200002B070BD10B58300084A9A1814684022B8
:100F3000544080322240064CA44663441A60C000EC
:100F4000044B9C466044416010BDC04604C0014053
:100F500004D001400040014080000C4B9C4660449E
:100F600000290ED00823002A0DD004221343026862
:100F700053400C2213408022520194466044036087
:100F800070470023EFE70022F0E7C04604C00140AD
:100F900070B50400D0231B061D680D4BAA00D35862
:100FA000002B0AD0002803D0094BAD00EC5070BDD7
:100FB00008490D2000F0B8FBF6E70028F7D0044BF5
:100FC000AD00E850034900220D2000F0A1FAEEE741
:100FD000C81B0020A1100010072303409B00C0087D
:100FE00099403C308000014BC150704700400140A7
:100FF000F8B507000D0016001C00FFF7EDFFFB0819
:101000009B00E4180720384080008540002E05D062
:1010100080239B019C4664442560F8BDC0239B014E
:101020009C4664442560F8E770B506000D00141E68
:101030000BD1D0231B061B68002B11D0094B2200BB
:1010400029003000FFF7D4FF70BD0D2000F018FA22
:101050000028EED1044B054A0548BD2103F0D6FE19
:10106000044BECE73041014038930010B0A400106D
:10107000F09200100041014070B505000E00140010
:101080001800FFF785FF220031002800FFF7CCFF92
:10109000002C00D170BD01210D2000F0D7F9F9E737
:1010A000F0B5D6464F464646C0B5D0231B061F684E
:1010B0001F4BBA00D3589846002F03D01D4B9946BA
:1010C000002626E01C4B9946FAE7EB40DB0714D5D7
:1010D00024090135002C1BD033000833AB4217D94B
:1010E0000F231A00224092462342F1D0134BBA003C
:1010F000D358202DE9D40023E8E751462800FFF714
:101100006BFF4346002BE3D051462800C047DFE782
:1011100008361D2E06D8F30808339B004A469C5813
:101120003500D7E7E0BCBA46B146A846F0BDC04698
:10113000C81B00203041014000410140E020002058
:10114000002906D08000064B9C4660444023036083
:1011500070478000034B9C46604440230360F7E7E0
:1011600004E0014004F0014010B501238340D02287
:101170001206936293610521FFF7D4FE10BD0000B3
:1011800010B58023DB05186803051B0D0B4A93423D
:1011900007D10B4B034080229201934207D1000FED
:1011A00010BD084B084A0948222103F02FFE084BC6
:1011B000054A0648232103F029FEC04627090000FE
:1011C00000F0FF0F64930010C8A400108893001073
:1011D000D09300100FB400B583B0084803F059FF56
:1011E000049B002B07D005A90191180003F060FFB4
:1011F000034803F04EFF012003F0E6FDE4930010E6
:10120000F4930010EFF3108072B6034B1B68002BB1
:10121000FBD0BFF35F8F70472C0100D0BFF35F8F0F
:10122000024B00221A6080F3108870472C0100D016
:10123000F8B506000C001500FFF7E4FFE308F71807
:10124000F15C07222240012393400B4205D1DBB21F
:101250000B433B70FFF7E2FFF8BD21002800FFF7CA
:10126000B9FFF0B583B00600019114001F00FFF72D
:10127000C9FF00E00134BC420CD8E308F518F35C68
:101280000721214001228A401A42F3D1D2B21A43E7
:101290002A7001E001246442FFF7C0FF002C02DB4A
:1012A000200003B0F0BD019B002BF9D00898FFF798
:1012B00091FF0000054A1078431CDBB21370172B16
:1012C00002D9130010221A707047C046E00B0020AC
:1012D00010B582B00100054C054B00931F23182266
:1012E0002000FFF7BEFF02B010BDC046E01B00208B
:1012F000F8930010002307E0054A9A189200BFF304
:101300005F8F0021116001331F2BF5D97047C04654
:1013100040000034074B9B68103080001950BFF329
:101320005F8FBFF35F8F044B0021196082F3108839
:101330007047C04600ED00E0240100D0004870472F
:1013400000E400E010B5FFF7F9FF002302E0034AD4
:1013500004C00133072BFAD910BDC04680808080BD
:1013600010B50388DA0A1C2A05D15B055B15023328
:101370005B00C01810BD034B034A16210348FF3120
:1013800003F044FD1494001028A500102C940010C4
:1013900010B5091A0B1F0A4A88180A4A904208D841
:1013A000C90706D45B105B055B0D0748184380B284
:1013B00010BD064B064A08210648FF3103F026FD02
:1013C000FC070000FE0F000000E0FFFF709400101B
:1013D0001CA500102C94001010B5091A04394A08F5
:1013E000090B08D14905490D064B0B430380064BF9
:1013F0001343438010BD054B054A10210548FF31BA
:1014000003F004FD00F0FFFF00F8FFFFA0940010C0
:10141000F8A400102C94001001238340034A1068A4
:101420001840431E9841C0B27047C04600E100E03A
:10143000002A05D0044BC022520099501960704711
:10144000014A8023D150FAE700E100E010B50A001C
:101450001F230340012199404009FFF7E9FF10BD18
:1014600001238340014A13607047C04600E200E058
:10147000024B9B6810308000C058704700ED00E0C0
:1014800010B5FFF7F5FF002806D0044B984201D0B5
:10149000012010BD0020FCE70020FAE7CD0100107C
:1014A00010B5FFF7E5FF044BC31A00202F229A4224
:1014B0004041C0B210BDC046E40B002070B504002E
:1014C0000D00EFF3108672B60C4B1B68002BFBD09F
:1014D000BFF35F8F2000FFF7CBFF094B984201D08D
:1014E000A84205D1320029002000FFF713FF70BD8C
:1014F000044B054A0548E72103F088FC240100D08D
:10150000CD010010B094001050A500102C940010D4
:10151000F0B5DE4657464E464546E0B589B08146B1
:1015200001911500EFF3108B72B66F4B1B68002B07
:10153000FBD0BFF35F8F6D4B00269E57002E40DB24
:101540007400A419A4006A4824180622A256674B06
:101550001A70684B9A684B4610339B00D3589846D4
:101560001B1A2F2B3BD9644B984531D105AF634BE8
:101570003B80634973009A46981980005C4B9846FB
:1015800040440230FFF704FF78805E4BBB80FF23AE
:10159000BB71FD71019B0793330053449B0043448F
:1015A00007CF07C301231C43A0465A46414648467D
:1015B000FFF7B0FE09B0F0BCBB46B246A946A04654
:1015C000F0BD514B514A74215148FF3103F01EFCCC
:1015D000504B4E4ABD214E48490003F017FC0123F1
:1015E00042469A439246101A0C2101F055FA0029FE
:1015F0000FD153460027DA79AA4212D9062159564B
:1016000000290DDB4A005218920039491F008B183F
:10161000F1E7414B3D4A8C213D48FF3103F0F6FB99
:101620001F00002F2ED005AB3C4A1A80813A5A8009
:101630000623FB560293002B17DA394805AB9A466E
:101640009880029A9A71DD71019A0792381D2100E3
:10165000FFF79EFEB880BE71254B72009219920072
:101660009B18524613CA13C39FE7381DFFF778FE35
:1016700001007000801980001D4BC0180430FFF776
:1016800087FEDBE705AF1D4B3B801D4973000293CE
:101690009B199B00164A90461A0042440392901CE4
:1016A000FFF776FE7880039A101D5146FFF770FE13
:1016B000B8801C4B52464146521A524153431B0DAF
:1016C000BB71FD71019A0792029B9B199B004344D9
:1016D00007CF07C3114B52461380813B5380012330
:1016E0001C43A04661E7C046240100D03C230020F3
:1016F000E40B002000ED00E0CD01001000A1FFFF91
:10170000140C002001BDFFFFE894001038A5001064
:101710002C9400101095001038950010014800001E
:1017200001BD0000AAAA0000F0B5CE46474680B52C
:1017300083B006000D00EFF3108872B64F4B1B68A4
:10174000002BFBD0BFF35F8F4D4B9A6834001034F1
:10175000A300D7584B4B9F4207D0AF4200D18AE03D
:101760000197494BFB1A2F2B09D94246390030000B
:10177000FFF7D0FD03B0C0BCB946B046F0BD3000A5
:10178000FFF74AFE814600213000FFF75FFEBFF3FE
:101790005F8FEFF30581002901D08C4211D1012325
:1017A000019C9C430020A3689D4212D00622A256B1
:1017B000002A0DDB53009B189B00334A2000D418ED
:1017C000F1E7324B324AFA213248FF3103F01EFB77
:1017D00020009D4249D106256557002D2BDB2A4B61
:1017E0006A00521992009B189A68A260DA79E27135
:1017F0009B795BB2A371002B0FDA2748A080224BA4
:101800006A00521992009B18244A11789971157038
:1018100049463000FFF71AFEA7E76800401980002C
:10182000194BC0180430FFF79BFD0100231D180061
:10183000FFF7AEFDE2E7002912D100280ED0FF230A
:101840008371174B838015490B78A3710E4A154B92
:10185000A41A644163431B0D0B70D9E7094FF2E7EB
:101860001149201DFFF7B8FDD2E7104B084A09487F
:101870000F4903F0CBFA034F77E7C046240100D0AD
:1018800000ED00E0CD010010E40B0020BC9500103D
:1018900008A500102C94001001BD00003C2300207E
:1018A00001BDFFFFAAAA00001E0C0020F095001049
:1018B0003B020000F8B5012202432D4BD31A2F2B17
:1018C00028D8EFF30583002B2BD0EFF3108472B6EA
:1018D000284909680029FBD0BFF35F8F244D2649B2
:1018E0000600761B76417143090D4DB22349896884
:1018F0009B00C95891421AD00021032931D81C4BB2
:101900004A00521892009B189B795BB2AB421ED0E2
:101910000131F2E71A4B1B4A9D211B48890003F055
:1019200075FA1A4B174A1848194903F06FFA134A07
:1019300092681849D150184B1A7882711D70BFF304
:101940005F8F0C4B00221A6084F31088F8BD084B9F
:101950004A005618B6009E19FF27B7710F4AB28089
:10196000E9E70F4B074AA2210748890003F04EFA26
:10197000E40B0020240100D0AAAA000000ED00E042
:10198000F8950010DCA400102C9400102096001094
:1019900077020000CD0100103C23002001BDFFFFB5
:1019A0002C96001010B582B00100074C074B009335
:1019B000052300222000FFF754FC002801DB1F2331
:1019C000181A02B010BDC046402300203496001003
:1019D000024B9C466144890001607047400000341E
:1019E00010B50400FFF766FC01002000FFF7F0FFD0
:1019F000FF232371BFF35F8F10BD10B50400FFF705
:101A000059FC01002000FFF7E3FFFF2323710023AF
:101A10006371BFF35F8F10BD10B50D4C09E00D4B26
:101A20000D4A0E481A2103F0F1F92000FFF7D8FF04
:101A300008340B4B9C4209D22368002BF5D0012BB4
:101A4000EDD12000FFF7D9FF0834F2E710BDC04602
:101A5000281200205096001090A5001070960010DB
:101A600030120020034B9C46614489000160BFF3A3
:101A70005F8F70474000003410B504000120FFF76D
:101A800027FC01002000FFF7EDFF10BD30B5846A90
:101A9000151B0B1D9B001B581B1B9D4204D3046A86
:101AA00001238B40234202D1043189000A5030BD0A
:101AB00000040843704700000A4B1968EFF31083D5
:101AC00072B60A68002AFCD0BFF35F8F054A12681D
:101AD000BFF35F8F0021116083F3108840BF0020A7
:101AE00000217047F4220020F0B5DE4657464E46EE
:101AF0004546E0B587B0EFF3058303221A409246CE
:101B0000AE4B9200D7583B78534507D1012352463C
:101B100093409946AA4B4A461A6025E1A94BAA4A26
:101B2000AA48922103F072F97A6973009B19DB00CD
:101B30009046984443469C68DD68A54800F0A4FBA5
:101B4000001BA941002900DA16E1002D74DB434691
:101B50001B699B469F4B9B454FD00823F85E43462D
:101B6000598889B2FFF7A4FF43465969D8470290C4
:101B700003910299039A0B00100013435CD01300E9
:101B80000A00002847DAA41A9D41009401954346B3
:101B9000009C019D9C60DD600021595E002900DAF7
:101BA000EAE078694B005B18DB00C3189A68DB68D1
:101BB000A41A9D41002D00DADEE039813D00083590
:101BC000844604912A000597B346009E019F049B1A
:101BD000002B2ADB0023D45E63001B19DB00634467
:101BE0009C68DD6830003900001BA94100291CDB1E
:101BF0001A000021595E0491E9E743465B699B4660
:101C00001B6958469847002816D05B461A685B68DF
:101C100002920393ADE76E4800F036FB029B039CF3
:101C20001B184C4100930194B1E70499059F5E464F
:101C30004346198016809FE0434600229B5E3B810D
:101C40003A69EFF3108372B611680029FCD0BFF334
:101C50005F8F02217A5E41460A807E803A69BFF337
:101C60005F8F0021116083F3108885E03969EFF3FD
:101C7000108372B60A68002AFCD0BFF35F8FB88861
:101C800000B201225242BA803A69BFF35F8F00214D
:101C9000116083F310880500BC461CE00493002209
:101CA0009A5E002A0EDB049B0021595E4B005B18F4
:101CB000DB0063449868D96834003D00241A8D41E4
:101CC000002DEBDA04995D46009B9C4644460D804E
:101CD0000023E55E2280002D12DB634658696C000C
:101CE0006419E4000419A668E7686146083108220F
:101CF0009A5EAB46049163460093A0468446D0E7C3
:101D000067463EE00023BB71390008310823F85EC6
:101D10000EE001246442E5179460D56008243B5F1F
:101D2000834204D00E8008243B5F1380388130004A
:101D3000431C29D07C6943001B18DB00E218E65ED7
:101D400053881BB2002BE4DB1100F0E722002B00CC
:101D500051461F48FFF79AFE1D4800F095FA241AD5
:101D60008D41002D22DC1FD0194B4A465A630823AF
:101D7000FE5E002E00DBD7E6BB881BB2002B00DB2B
:101D800074E7BB79002BBDD10823FA5E002A0DDB76
:101D9000796953009B18DB00CB189C68DD68631CD5
:101DA000D4D16B1CD8D0D1E7002CDDD040BF07B018
:101DB000F0BCBB46B246A946A046F0BDCC200020F0
:101DC0003C70054004970010BCA50010309700102F
:101DD00000400540E91A001070B504000D00110024
:101DE0000126AE4006622800FFF768FB01212800AB
:101DF000FFF72CFB024B9C466444266070BDC04636
:101E000038200000F8B5CE46474680B50600894622
:101E100090461F00C160FFF74DFA154B9C46604489
:101E20008000306143463370BBB27381D02212060A
:101E300012787270012252423281B2809B187380F4
:101E4000002406E0621E736965002D19ED005A53E7
:101E50000134BC42F6D3074B42469200D650064AA4
:101E600041464846FFF7B8FFC0BCB946B046F8BD8A
:101E700040000034CC200020E91A001010B5064BB9
:101E80001B69002B01D0044810BD044B044A0548CF
:101E9000652102F0BBFFC0462C0C0020709700109B
:101EA000A4A5001030970010F8B504000569EFF301
:101EB000108072B629680029FCD0BFF35F8F022121
:101EC000665E656971008919C9006D18002E02DB14
:101ED0000027E95F61802169BFF35F8F00270F60F2
:101EE00080F31088002E2CDB06992961079969611F
:101EF000AA60EB606B8801335B04590C002B00D1A6
:101F0000012169803000FFF7D3FD2169EFF31083D1
:101F100072B60A68002AFCD0BFF35F8FA2882A80BD
:101F2000A6802269BFF35F8F0021116083F31088C0
:101F3000E368217801228A4003498C4663441A6091
:101F4000F8BD01204042FBE73C20000070B582B0A4
:101F5000060014001D0008AB1B78002B07D100F011
:101F6000C5F922002B00121A8B41002B0ADB079BBC
:101F70000193069B009322002B003000FFF794FF93
:101F800002B070BD0020FBE7F0B5C64600B584B0D6
:101F90000500884616001F000AAB1C78FFF76EFF8D
:101FA0000294019700962A004346FFF7CFFF04B042
:101FB00080BCB846F0BD000030B504000A14438967
:101FC0009A422EDA406953009B18DB00C31825693A
:101FD000EFF3108272B628680028FCD0BFF35F8F41
:101FE000588885B20904090C884212D00020236960
:101FF000BFF35F8F0021196082F31088002811D091
:10200000E368217801228A4007498C4663441A60BC
:1020100008E00649294389B259800123A3710120B0
:10202000E5E7002030BDC0463C2000000080FFFFF7
:1020300010B50400FFF722FF2100FFF7BDFF10BD20
:1020400040787047F0B583B006000F00EFF30583CA
:10205000002B1AD106246442E517A4197D418D4254
:1020600002D803D1844201D90024002500F03EF9B2
:1020700022002B00121A8B41002B0BDC08D0300001
:10208000390000F045F903B0F0BD1648FFF7A2F89B
:10209000002AF4D0144A0023009320002900FFF7FF
:1020A00073FF002813DAEAE7104B1968EFF3108387
:1020B00072B60A68002AFCD0BFF35F8F0B4A126821
:1020C000BFF35F8F0021116083F3108820BF084B9E
:1020D0005B6A9D42E8D80649896AA142CFD29D42F7
:1020E000CDD1E1E794970010B91A0010F422002036
:1020F0000040054070B504000D0000F0F7F800192D
:102100006941002902DBFFF79DFF70BD01204042BD
:102110000049F8E7FFFFFF7FF0B5CE46474680B5A0
:1021200083B005000C00EFF30583002B15D03F4B67
:102130005B6A8B4209D33D4A926A82420BD28B4240
:1021400001D0012002E0002000E0002003B0C0BC6C
:10215000B946B046F0BD0120F8E7FFF78FFEC3682F
:102160009946037898462E002700484600F08CF8E0
:1021700002000B00B61A9F41434604339B004A46B7
:102180009B581B1A0022BA420FDC0CD020BF274BF1
:102190005B6A9C422DD8254A926AAA422BD29C4265
:1021A00025D00120D2E7B342F0D9214A0023009381
:1021B00028002100FFF7E8FE00281EDD1B4B5B6AAC
:1021C0009C4205D8194A926AAA4202D29C4200D186
:1021D00020BFFFF72DFF154B5B6A9C4221D8134AA5
:1021E000926AAA421FD29C4219D00120AEE7002079
:1021F000ACE70020AAE70120A8E70C4B5B6A9C42F1
:1022000009D80A4A926AAA4207D29C4201D0012008
:102210009CE700209AE7002098E7012096E700203D
:1022200094E7002092E7012090E7C0460040054077
:10223000B91A0010004870470040054010B50B4B1C
:102240001B69002B04D00A480A21FFF7C1FB10BD0F
:10225000FFF7F0FF0400032100F00CF803481023FF
:1022600003222100FFF7CEFDEDE7C0462C0C002035
:10227000F422002010B5024A0248FEF7D9FF10BD33
:10228000E4970010E41B00200200436A906A1900E2
:10229000536A9942FAD17047416A00E0416A994213
:1022A000FCD300E0416A994202D1816A9142F9D39C
:1022B0007047F0B5C64600B5804614001D00FFF714
:1022C000E3FF06000F0022002B0092197B41994288
:1022D00002D804D1904202D901225242D31740467B
:1022E000FFF7DAFF80BCB846F0BD000010B5024829
:1022F000FFF7CAFF10BDC0460040054010B5020000
:102300000B000248FFF7D5FF10BDC0460040054056
:1023100010B502000B000248FFF7BEFF10BDC0461B
:1023200000400540074B98420AD0162301229A40EC
:10233000054B1A60054B1B6811009943FAD1704791
:102340001723F3E70080034000F0004008C000407E
:1023500070B5046BE30701D4200070BD0B4BC318AC
:102360000B4A1A60456A836AAD01ED18AD0206207A
:1023700000F016F9074900F08FFB0100280000F07B
:102380008BFB0021FFF7BAFFE6E7C04630300000C4
:10239000010300004E0E000070B504000E00150091
:1023A000FFF7D6FFE36A5E403540024BE3181D603D
:1023B000206370BD2C10000070B505000C000620D5
:1023C00000F0EEF8C000210000F066FB0130C60905
:1023D00007D00E4B9E4215D8400834003F260640D9
:1023E00000E001246C62AE62002200212800FFF7A9
:1023F000D3FF062000F0D4F88000A101891900F075
:102400004BFB70BD0026024CECE7C046FEFF00000F
:10241000FFFF0000002909D00A22064B9C466044B9
:1024200043425841044B4000C25270478022520040
:10243000F3E7C0460080FCBF1C23002070B50400F9
:102440000D00062000F0ACF800281ED0104B9C4276
:102450001CD01622012393400E4A13602000FFF780
:1024600061FF00212000FFF7D5FF29002000FFF7C2
:10247000A3FFE26A70235A400E331340064AA218A3
:102480001360064B23630323A36470BD1722E1E7A7
:102490000080034000E000402C1000000103000019
:1024A000F8B5D646474680B506000D001700984699
:1024B00044002418A400294B9C4664446368089A8D
:1024C000934200D26260331FDBB29A46012B2ED9B1
:1024D00080221201C0239B01E3181A60204BB20036
:1024E000D158002907D0586900F0D6FA01304300CE
:1024F0001B18033BFDD27F0123685F40E0233B4074
:1025000080225201A21813605346012B1AD980234E
:102510009B01E318802212011A60089B6360104B34
:10252000B6004246F250C0BCBA46B046F8BD012DD6
:10253000CED10322C0239B01E3181A60A368DB07F6
:10254000FCD5D8E72168694003230B401360A368DA
:102550000122AA401A42FAD0D9E7C04600800040C2
:10256000EC1B0020F0B583B005000E00170018002A
:10257000089900F091FA0300089A140200943A00B6
:1025800031002800FFF78CFF03B0F0BD10B582B01A
:10259000802464000094FFF783FF02B010BD0000A8
:1025A000014B8000C0587047EC1B0020F0B5C646B8
:1025B00000B504000E0017001D00374800F06CFA4B
:1025C0008046364BFA18364B9A4239D8010038000B
:1025D00000F062FA0200103A98235B009A4235D864
:1025E0006B1E062B38D8069B013B062B34D83F09BF
:1025F000474537D32D04069B1B031D432368002B3F
:1026000036DB284B9C4244D00C2201239340264ABF
:102610001360264A1360264A1268190091430A1E65
:10262000F9D12660A060234BE31821321A6022689A
:10263000002AFCDAE56008221A6080BCB846F0BDCA
:102640001D4B1E4A1E48112102F0E0FB1D4B1B4A88
:102650001B48192102F0DAFB1B4B184A18481C21B1
:1026600002F0D4FB194B154A1548232102F0CEFB8A
:1026700022683F231340B342C3D1A3681B051B0D3F
:102680008342BED1E368EE22D2021340AB42B8D1FE
:10269000D3E70D22B9E7C046001BB70080E84BD353
:1026A00080F8A93200C0024000E0004000F0004085
:1026B00008C000400430000008980010D4A50010A5
:1026C000589800109C980010B898001004990010B9
:1026D000024B1A68024B5A607047C046A020002087
:1026E0000080054010B5184B8022D2051A60174BA8
:1026F000174A1A6000290AD0164BE022D2041A6049
:10270000002809D1134B802212061A6010BD0E4B0F
:10271000E022D2041A60F3E743011B1A9B001A1847
:10272000D2000D490A6018180001086080235B047C
:10273000984201D3094A0A60FFF7CAFF054B80227D
:10274000D2051A60E2E7C04600B00540082001400B
:10275000FCFF010000A00540A0200020FFFFFF00BB
:1027600010B5030010000C4A8024E4051460002B0F
:102770000DD001221343094A094CD461094C5C4035
:102780001462516293620021FFF7ACFF10BD034B4E
:102790000022DA61F7E7C04600B00540008005403E
:1027A000D3C007B02D3FF84F80239B000B43014A55
:1027B000D36270470080054010B5010018231B88C4
:1027C00014221088984710BD10B5010018231B88EB
:1027D00016221088984710BDF0B5C64600B5070010
:1027E0000E0000250123984600E00135B5420AD2CB
:1027F000AC003C192068FFF7DFFF20600028F4D10F
:1028000000239846F1E7404680BCB846F0BD000082
:1028100070B504000D000348FFF7CEFF0300290048
:10282000200098475542000070B504000D0006488E
:10283000FFF7C2FF0300002C03DB0120A0402900AA
:1028400098470020FBE7C04655420000074BAA22EC
:1028500012011A608D225200DA60054B054A1A6097
:10286000024B5B68002BFBDA7047C0460040024019
:102870000060024000B0FA0010B5040001E008CC8E
:102880009847024B9C42FAD310BDC046F491001009
:102890007047000010B50248FFF7EEFF10BDC046BC
:1028A000B8910010054B064A1A60064B064A1A609A
:1028B000064B1A68044B9343FAD1704700E000407E
:1028C000BFCDFBFE00F00040FE7F3C0008C0004092
:1028D000044BDB6C002B03D1034B8022D2021A6025
:1028E0007047C046000011504C201150044B054A5F
:1028F0001A60054B1B68DB43DB01FAD17047C04609
:1029000000F00040FFFFFF0108C00040034B4022E1
:102910009A675A671A67DA667047C04600F0014046
:1029200010B5FEF7E7FC10BD70B5044DA968044C66
:10293000C022200001F030F9AC6070BD00ED00E075
:102940000000002070B50420FFF72AFE064900F0C1
:10295000A3F805000024002C00DD70BDE0B22900C2
:10296000FFF722FF0134F6E740420F0030B583B095
:10297000274B00229A67FFF769FF264B01221A6056
:10298000234B5B6C012BFBD1234B03221A60204BA2
:102990009B6B012BFBD10133009304331F4A0121B0
:1029A0001F48FFF703FE052300931E4A01211E481E
:1029B000FFF7FCFD1D4B002202210420FFF7E6FD7E
:1029C0001B4D2B00002201210520FFF7DFFD194CD4
:1029D0002300002200210720FFF7D8FD230000225A
:1029E00000210820FFF7D2FD8023DB0000932300A5
:1029F000002200210920FFF7B5FD2B000022002155
:102A00000620FFF7C3FDFFF79DFF03B030BDC046B2
:102A1000008000403CB0004030B00040002F6859BA
:102A200000800240008C864700C00240001BB700B7
:102A300040597307006CDC0201480421014B184720
:102A4000500C0020D9270010124A936F9B0815D212
:102A50009066D166002905D0FFE7FFE7FFE7516FD9
:102A6000106F704704B580210906C2175140002835
:102A700000D0C84306F058FB002104BDF0B5146E29
:102A8000556E576F166FFFF7E3FF1466556657676D
:102A90001667F0BD000000D0114A936F9B0813D257
:102AA00010665166002905D0FFE7FFE7FFE7516F89
:102AB000106F704704B5002801D00020C04306F015
:102AC00033FB002104BDC046F0B5146E556E576F40
:102AD000166FFFF7E5FF1466556657671667F0BD7A
:102AE000000000D094464A4A926F9208624601D292
:102AF00028E0C046F0B5464E346E756E776F366F7F
:102B000000F020F89446424A1466556657671667E7
:102B10006246F0BD94463E4A926F9208624601D2E8
:102B200054E0C046F0B53A4E346E756E776F366F2E
:102B300000F04CF89446364A146655665767166797
:102B40006246F0BD002B24DB11D000293EDA00B52F
:102B5000C943404200D1013100F038F8C943404236
:102B600000D10131DB43524200D1013300BD002AC4
:102B7000EBD1002801D1002905D00020C90FC907D9
:102B800001D1C043410800B506F0C6FA0022002377
:102B900000BD00B500290ADBDB43524200D10133FE
:102BA00000F014F8C943404200D1013100BDC943CF
:102BB000404200D10131DB43524200D1013300F0E9
:102BC00005F8DB43524200D1013300BD002923D177
:102BD000002B18D1002A0CD0BC460D4F38667A66FF
:102BE00000210023FFE7FFE7FFE77A6F386F6746B2
:102BF0007047002801D00748010000B506F08CFAA4
:102C00000022002300BD02000B00002000217047BD
:102C1000000000D0FFFFFFFF002B00D0BFE0130C2F
:102C200028D1002AE7D080B4114F39667A66FFE7D1
:102C3000FFE730B4040C7B6F396F1B0423433B6602
:102C40007A66FFE7FFE7FFE7C04684B27B6F3D6F20
:102C50001B0423433B667A66FFE7FFE7C046002379
:102C60002C042D0C7A6F386F00196941B0BC704785
:102C7000000000D0F0B594460025140E01D11202D8
:102C80000835140F01D112010435940F01D19200BF
:102C90000235D40F01D152000135D40B0134254F38
:102CA0007C66254C3C660E0C93B2FFE7FFE7FFE71E
:102CB0003C6F6643360C7703BE467343DF0B5B0401
:102CC000C01AB941130C7343DB18C91ACE08664306
:102CD000360CB64493B273431F0F1B01C01AB9419F
:102CE000130C73431F0B1B05C01AB941860D8F02CD
:102CF0003E436643360C092D24DB520A7243801A88
:102D00007703460A6643360C16235B1BDE40DF4022
:102D1000BF1964466643821B7046043506330100C2
:102D2000D940A840C01900D30131A24206D20023E5
:102D3000F0BD0000000000D0FFFFFFFF121B0130BC
:102D4000F3D3F1E709277F1BFE406446A2B272432A
:102D5000801A00D20139220C7243130C1204821A19
:102D600099410B007046043513370100F940A84023
:102D7000801900D30131002B02D1A2420AD2F0BD4A
:102D8000013000D30131121BFAD2013BF8D1A2422B
:102D900000D2F0BD013000D30131121BF7E7F0B5CE
:102DA0001C0C00D080E00CB400251C0A04D11B02CE
:102DB000160E3343120208351C0B04D11B01160FEB
:102DC0003343120104359C0B04D19B00960F33430F
:102DD00092000235DC0B02D192185B4101351C00D8
:102DE000971864410134464F7C66464C3C660E0C95
:102DF000FFE7FFE7FFE7C0463C6F6643360C77030B
:102E0000BE4697B27743C01B00D20139C01B00D227
:102E100001399FB27743C91BC91B170C77437E0446
:102E2000FF0B801BB941CE086643360C0C2D33DBFB
:102E3000B644120B1F053A431B0B97B27743C01BD6
:102E400000D201399FB27743C91B170C77433E0468
:102E50003F0C801BB941860D8F023E4366432927F4
:102E60007F1BFE400C3D7746AF40BF1930BCA2B27D
:102E7000ABB272437343801A9941220C7243130C14
:102E80001204801A994102000B000137001BA9416E
:102E9000F9D2781E0021F0BD0C277F1BFE4077463B
:102EA0007F0BAF40FF19E0E700245D1C07D0144FF3
:102EB0007D663966FFE7FFE7FFE7FFE73C6F95B206
:102EC0009EB265436643401BB141150C1E0C654321
:102ED000664336042F0C3E432D04401BB1419942FA
:102EE00004D202000B0020000021F0BD01D190426D
:102EF000F7D3801A994101349942F2D3F6E70000E2
:102F0000000000D0FFFFFFFF48404140484018B498
:102F1000134B5B68019308BD18B4114B1B680193F8
:102F200008BD94460F4A926F920805D2624618B4C3
:102F30000B4BDB68019308BD0A4AF0B5146E556E61
:102F4000576F166F6246FFF7F2FF064A1466556622
:102F500057671667F0BD18B4014B9B68019308BD15
:102F6000F0200020000000D0FFB55040424050400B
:102F700059404B40594000E0FFB5154F4C00640DDF
:102F800003D0BC4204D10C0314D80020090D09055C
:102F90005C00640D03D0BC4204D11C030AD800229B
:102FA0001B0D1B0501264B4009D44B4003D58B421A
:102FB00000D18242FFBD9942FCD19042FFBD0B433C
:102FC000DB1803431343F5D0C9434918FFBD000084
:102FD000FF07000000B5FFF7CFFF01D0002000BDC4
:102FE000012000BD00B5FFF7C7FF804100BDC0460E
:102FF00000B5FFF7C1FF01D9002000BD012000BDD1
:1030000000B5FFF7B1FF01D9002000BD012000BDD0
:1030100000B5FFF7A9FF804100BD012040054A002F
:10302000121804D85A00121801D800207047012045
:10303000704700000021002805D17047C1174840A3
:10304000401AFAD0C90713B5064B1B6898470CBC49
:10305000441CA2401005120B0349091B0905194322
:10306000114310BDF02100201F04000010B54C00DA
:10307000620D8023D218DB00D21A5B057E2A10DD98
:103080009E3A13DACC170903490819435242D1403A
:10309000640001341532202A05DAD0400843604329
:1030A00010BD002010BD0846604310BDC80FC018F9
:1030B000013810BD18B4024B5B6A019308BD0000D3
:1030C000F020002018B4024BDB6F019308BD000014
:1030D000F020002018B4024BDB6C019308BD000007
:1030E000F020002018B4024B1B6D019308BD0000B6
:1030F000F020002010B50148FEF76CF82099001070
:1031000070B513231C78012C12D0012C12DC214B3A
:10311000214A93642148FFF74FFB214B186070BD93
:1031200020491D4A9800815001331F2BF8D9ECE744
:103130000023FAE71C48FFF747FB05001B48FFF791
:1031400043FB023803789B007F2B09DD1248802265
:10315000290000F021FD022C08D0022CDADCD6E791
:10316000134B144A1448332101F050FE134B1A88B4
:10317000B5231B029A4209D1114B1A88114B9A426E
:1031800004D1114B1A88114B9A42E6D00020FEF769
:1031900021F8C046B9380010F02000204C33000060
:1031A000F0210020F5300010534400005346000089
:1031B00038990010E0A500107C99001054380000E8
:1031C000D8380000494600009C38000059460000ED
:1031D00030B50B0D5B055C0D002B14D00D4B9C42E4
:1031E00011D01419002C09DD0B4B9C420CDDC90FCA
:1031F000C907002409480843050002E00024C90F5C
:10320000CD072000290030BD0024150524184D41AC
:10321000F7E7C046FF070000FE0700000000F07F50
:1032200030B50B0D5B055A0D002B1FD0134BD21878
:103230001ED434239B1A002B1CDD1C00203C0CD414
:1032400001225242A240012464429C400300A34355
:1032500091430B4310D1012009E02024E41A0122FC
:1032600052421500E5409A402A43ECE7012030BD68
:103270000020FCE70120FAE70020F8E701FCFFFF4F
:1032800030B50B0D5B055B0D1B4A9B182CD434220B
:10329000D31A2BD41C00203C16D4353AA24001246A
:1032A00064429C400500A5432C000D0095432A0074
:1032B00022431DD1342B1DD01A00203A0DD4080012
:1032C000D0400123184030BD2024E41A012252428C
:1032D0001500E5409A402A43E1E72022D21A0C006B
:1032E0009440D8402043ECE70020ECE70020EAE7D8
:1032F0000020E8E70120E6E701FCFFFF02000B00E9
:10330000090D4905480D002907D00549884205D017
:103310001803000B10434342584170470020FCE75C
:10332000FF07000070B504000D001600012A0ED042
:10333000D20F92195210FFF7F5FF02000B00FFF7B2
:103340000AFEF60703D522002B00FFF704FE70BD2E
:1033500010B5141E03DB2200FFF7E4FF10BD0200CE
:103360000B0000200249FFF7DCFD6442F3E7C04692
:103370000000F03FF0B5D6464F464646C0B588B08F
:1033800014001D000E0D7605760D674BF718674A81
:10339000921BFFF71DFFFFF7A5FE654A654BFFF780
:1033A000C0FD0022644B00900191FFF731FE002820
:1033B00009D00022614B00980199FFF7A8FD009009
:1033C00001915F4BF718002F11D000225D4B2000B8
:1033D0002900FFF715FE002815D0002F10DB002074
:1033E000594908B0E0BCBA46B146A846F0BD220033
:1033F0002B0000980199FFF7AEFD00F065F9F0E7AA
:1034000000200021EDE70022504B20002900FFF7AB
:10341000EFFD002807D0002F02DB00200021E0E7AD
:1034200000204949DDE72000290000F001F904905F
:10343000059102000B0020002900FFF768FD030042
:103440000C001A220293039400F0EEF800F0F0F85A
:103450001A225242FFF7BCFE04000D0002000B00CE
:1034600002980399FFF753FD069007910498059978
:10347000FFF7FCFD8146010079438A463800FFF7DB
:10348000DDFD22002B0004900591FFF764FD06008E
:103490000F0000F0CDF804000D00FFF7E7FD8046B7
:1034A000D04422002B0030003900FFF730FD04002B
:1034B0000D00069A079B04980599FFF74CFD020042
:1034C0000B0020002900FFF727FD049005914846D6
:1034D000FFF7B4FD009A019BFFF73DFD04000D00CE
:1034E00000F0A6F806000F00FFF7C0FD8044320090
:1034F0003B0020002900FFF70AFD049A059BFFF717
:103500000BFD04000D00029A039B00980199FFF740
:1035100022FD22002B00FFF7FFFC00F0D5F8424609
:10352000FFF756FE5DE7C04601FCFFFFFF0300000A
:10353000EF39FAFE422EE63F0000E03F0000F03F88
:1035400002FCFFFF0000B0400000F07F0000B0C0B0
:10355000F0B5C64600B582B004000D0016001F008D
:10356000019000291DDA10001900FFF789FE0028DC
:103570000ED0200080231B06E91832003B00FFF725
:10358000E7FF80242406091902B080BCB846F0BDCC
:10359000019880231B06E91832003B00FFF7D8FF93
:1035A000F2E710001900FFF761FD804620002900B6
:1035B000FFF7A4FE00280CD14346002B28D020336F
:1035C000402B1FD932003B0020002900FFF7D2FE1C
:1035D000DAE72A0D5205520D0F4B9C4662448023B8
:1035E0001B01984505DA0D4B984504DA0B4B9846BC
:1035F00001E00B4B984643465A4300200949FFF728
:10360000E7FDC1E7424620002900FFF7A1FEBBE726
:1036100000200449B8E7C04601FCFFFF00F8FFFFA7
:10362000FF0700000000F03F10B5FFF7D1FD10BD0F
:1036300070B50B0D5B055B0D214A944663445A1C23
:1036400024DB5A1C28D03422D21A002A1DDD332450
:10365000E41A2500203D26D40126AE403300012582
:10366000A5402A0012184B412500203D21D40226F6
:10367000AE4031000225A5402800002544428D417E
:103680001600264030002B40190070BD0022C90FE3
:10369000CB0710001900F8E7CB0FDB070020094A21
:1036A0001A431100F1E720252D1B0126EE403300BF
:1036B000D5E720252D1B0226EE403100DAE7C04673
:1036C00001FCFFFF0000F03F70B504000D000A0D83
:1036D000194B9A4229D00022184BFFF789FC002889
:1036E00026D10022164B20002900FFF789FC002874
:1036F00002D0002013491DE020002900FFF798FFA9
:10370000FFF7B4FC0600FFF799FC02000B00200055
:103710002900FFF7FCFB0C4A0C4BFFF71CFCFFF7E2
:10372000D9FC3200FFF754FD04E00020002101E045
:103730000020002170BDC046FF0F00000000B0C097
:103740000000B0400000F07FEF39FAFE422EE63F65
:10375000F8B5CE46474680B506000F0014001D00A0
:1037600000224E4BFFF736FC002821D12B0D984646
:103770005B055A0D9146002B1AD00022484B3000B1
:103780003900FFF727FC002802D0464B99456DD041
:103790003A0D5305590D002B1DD1002D0EDB2000D5
:1037A0002900FFF76DFD002863D03000390001E0EB
:1037B00000203A49C0BCB946B046F8BD20002900F7
:1037C000FFF75EFD002857D0FB0FDB070020364ACD
:1037D0001A431100EEE7334B9A4213D0334B9A420F
:1037E00015D0304B984527D0304B98452AD0200033
:1037F0002900FFF715FD00282AD1002F2FDA00201D
:103800002949D7E7002D3ADA00200021D2E7002D20
:1038100008DB20002900FFF733FD002832D000200C
:103820002349C7E720002900FFF72AFD00282CD0F4
:10383000002080210906BDE71E4B994228DC0020AC
:103840000021B7E71B4B994225DC00201649B1E760
:1038500022002B0030003900FFF77AFEAAE7220091
:103860002B0030003900FFF785FDA3E700200B494E
:10387000A0E7002000219DE700200B499AE70020E7
:10388000094997E70020084994E70020002191E7C3
:10389000002005498EE7002000218BE70000F03F63
:1038A0000000F0BFFF0700000000F07FFF0F0000E6
:1038B0000000F0FFFE03000007B56046002800D1BD
:1038C00000BE01880A0A0230DF2AFAD1C9B2820892
:1038D00004D3028840880004104300E00068024AD4
:1038E0005050039007BD0000F02000205143434397
:1038F000C9188C46110C83B24B4310B4040C6143BD
:1039000092B280B2504362431C041B0C001910BCDD
:1039100059411304120CC018514161447047000012
:103920004840414048400E4B5B6818470C4B1B68B1
:1039300018470C4A936F9B0802D2094BDB68184763
:10394000F0B5146E556E576F166FFFF7F6FF054A08
:103950001466556657671667F0BD014B9B6818479C
:10396000F4210020000000D007B548404140484005
:1039700001E0C04607B54200120E03D0FF2A03D172
:10398000420218D8C00DC0054A00120E03D0FF2A0B
:1039900003D14A020FD8C90DC9050122414005D4FF
:1039A000414001D5814207BD884207BD0143491806
:1039B00001D0C043001807BD00B5FFF7DBFF01D001
:1039C000002000BD012000BD00B5FFF7D3FF8041FE
:1039D00000BDC04600B5FFF7C7FF01D9002000BDFC
:1039E000012000BD00B5FFF7BFFF804100BD491AAF
:1039F000002807D108467047C10FC90700D54042CB
:103A0000002817D0F44603B40B4B1B68984706BC3C
:103A100081409E384042803107D20B0607D04900D2
:103A2000490AC0051043084360470130F8E7490AD6
:103A30008902F5E770470000F021002041000A0EDE
:103A400080231B067E2A0BDD9E3A0BDAC11740024B
:103A5000400818435242D040490001314843704762
:103A600000207047C00FC01801387047C0420DD306
:103A700000B540004008002100F00EF8002801D4F5
:103A8000404200BD8020000600BD0000014BDB6904
:103A900018470000F4210020014B5B6A1847000022
:103AA000F4210020014BDB6F18470000F4210020B7
:103AB00010B50148FDF78EFB2892001070B5132356
:103AC0001E781848FEF780FE0500012E11D0012E49
:103AD00009DDAB1E1B789B007F2B1DDD1248802269
:103AE000290000F059F81148FEF766FE104B1860E7
:103AF00070BD0D485422290000F04EF8002300E06C
:103B000001331F2BE3D8084A9C00A258002AF7D1A2
:103B10000849054AA150F3E7074B084A08484221E3
:103B200001F074F953460000F42100204C330000EA
:103B3000F0210020B13A0010D4990010F4A5001033
:103B4000089A001010B5002804D04018034B984282
:103B500000D810BD0248FDF73DFBC0460000042020
:103B60005C9A001070B506000C0004F0B3FD05006F
:103B700021007143FFF7E6FF280070BD01480421D2
:103B8000014B1847600C0020D9270010014B1B681F
:103B900018470000600C0020014B5B6818470000CC
:103BA000600C00209A4200D288547047704710B5CC
:103BB000002802D00B684968984710BD010000201A
:103BC00007E083001B185B00501C08601078C018C9
:103BD00030380A681378303BDBB2092BF1D97047D3
:103BE000F0B5DE4657464E464546E0B583B09346AF
:103BF0001F000C9B9A460D9C0E9B99460F9B9B07A2
:103C000017D0B8460F00060022E0551C4B4641462F
:103C10002020B84701342A00B442F6D33D004F4675
:103C20005C46019B9B46B1464646B84637002E008F
:103C30000EE00192A34688464E46B9460700EBE7E0
:103C4000013C551C5346185D43463900B0472A00D5
:103C5000002CF5D135003E0047460F9B9B0711D441
:103C6000100003B0F0BCBB46B246A946A046F0BD6A
:103C7000541C4B4641462020B8472200531BB342F8
:103C8000F6D3EDE7B0464E46B9462F005D46F5E760
:103C9000F0B5CE46474680B585B0944698460C9D13
:103CA0000D9C0EAB1B789946109A119B129EB7077C
:103CB0001CD4002B0CD0F7070AD54F46002F02D199
:103CC0000C37374204D0013B02E030272F55013436
:103CD000944201D21F2CF8D9F70707D59C4205D290
:103CE0001F2C03D830272F550134F5E7F70612D5DE
:103CF000770505D4002C03D0944221D09C421FD0DC
:103D00000F9A102A2FD00F9A022A36D01F2C0AD8C9
:103D100030222A5501341F2C05D84A46002A32D0B9
:103D20002D222A55013403960293019400954346AF
:103D30006246FFF755FF05B0C0BCB946B046F0BDBE
:103D4000621E012C17D00F9F102F0BD014000F9A5A
:103D5000102AD8D1B206D6D51F2CD4D858222A552D
:103D60000134D3E7023CB206F1D41F2CEFD87822FD
:103D70002A550134CAE71400C2E71F2CD3D8603299
:103D80002A550134C2E7720703D52B222A55013484
:103D9000C9E73207C7D520222A550134C3E7F0B559
:103DA000DE4657464E464546E0B593B081468A46C4
:103DB000089209931CAB10CB1B789B461E9D219B40
:103DC0009846002C03D1102342469A439046802304
:103DD000DB0046461E4042461A4218D0002C22D034
:103DE000002614E0424692061BD54121C918C9B2EB
:103DF0000A39C9B2771C0AAB995529002000FEF791
:103E00004BFEAC4210D31F2F0ED83E0004002900F9
:103E10002000FEF741FECBB2092BE3D83033D9B2F4
:103E2000E8E76121E2E7270043460693209B0593DC
:103E30001F9B049303955B46029301970AAB009383
:103E4000099B089A51464846FFF722FF13B0F0BC81
:103E5000BB46B246A946A046F0BDF0B5DE46574681
:103E60004E464546E0B597B00A900B910C929A46A3
:103E7000209B9946219F22AA13789B46249B099355
:103E8000259C289B98464A463A4302D110329343D8
:103E900098468022D20045461540434613420AD038
:103EA0004A463A4341D000252E0053460D934D46D5
:103EB000099B9A4621E02E0053460D934D46099BDF
:103EC0009A461AE04246920623D54122D218D2B22F
:103ED0000A3AD2B2731C99460EAB9A555246230049
:103EE00028003900FEF716FEBC4220D813D04B46FE
:103EF0001F2B16D84E4605000F00524623002800FF
:103F00003900FEF707FED3B2092BDBD83033DAB223
:103F1000E0E76122DAE7AA45E9D94E460D9B9A46C9
:103F200008E04E460D9B9A4604E0002602E04E460D
:103F30000D9B9A4643460693279B0593269B049325
:103F4000099B03935B46029301960EAB0093534685
:103F50000C9A0B990A98FFF79BFE17B0F0BCBB4672
:103F6000B246A946A046F0BDF0B5DE4657464E46DD
:103F70004546E0B591B0804689460C929A461A9C17
:103F80001B9D22002B0020002900FFF746F8002887
:103F900000D0F2E001225242D54B20002900FFF769
:103FA00037F8002800D0E8E001225242D14B20002F
:103FB0002900FFF717F8002800D0DEE000220023D8
:103FC00020002900FFF70EF8002800D0EAE0069450
:103FD00007958023DB001E9A1A400D921E9A1A4202
:103FE00001D106231C930698079902000B00089242
:103FF000099303000A00024300D1DFE0080D4005E9
:10400000400DBD4EB4466044079E3203120B1E00A5
:10401000BA4B13431F00FFF711F8B94AB94BFEF72B
:104020009AFFB94AB94BFEF777FF08900991002231
:10403000B74B30003900FEF76AFFB64AB64BFEF7C1
:104040008AFF02000B0008980999FEF765FFFFF749
:104050000DF88346FEF7F2FF06000F00AF4AB04BA3
:10406000FEF779FF0022AF4BFEF756FFFEF7FEFF8B
:104070000890AD4AAD4B30003900FEF76CFF0600EA
:104080000F000898FEF7DAFFA94AAA4BFEF763FF74
:1040900002000B0030003900FEF739FF06000F0068
:1040A00002000B00FEF757FF0A900B91089BA24AF3
:1040B0009446634400210022089109921B0509934C
:1040C0000023089332003B0030003900FEF724FF44
:1040D0000E900F9132003B0000208021C905FEF7B1
:1040E00016FF06000F000022944B0A980B99FEF76A
:1040F00018FF0022924BFEF70FFF02000B000A98F8
:104100000B99FEF70EFF00228E4BFEF705FF020013
:104110000B000A980B99FEF704FF02000B00300019
:104120003900FEF7F9FE02000B000E980F99FEF71A
:10413000F8FE0022714BFEF7EFFE089A099BFEF78E
:104140000AFF06000F0008960997069A079BFEF7DC
:104150005FFF00280BD001235B429C46E344002212
:10416000774B30003900FEF7DCFE089009915B4682
:104170006333C62B45D8042623E01E9B04931D9B66
:1041800003931C9B02930094019553460C9A494655
:10419000404600F0FBF811B0F0BCBB46B246A94661
:1041A000A046F0BD002100220691079206948023CC
:1041B0001B069C46AC44634607930AE700239B46D4
:1041C00004261E9B1B0528D5089A099B190011433C
:1041D0000FD05D4A5D4B06980799FEF711FF002846
:1041E0007AD000225A4B06980799FEF7FBFE00286A
:1041F00072D01C9B5B4506DD5A469B1A013B1C9303
:1042000003E00526DDE700231C938023DB001E9AD4
:104210001A431E92002600239B461D9B9E4265D298
:104220009F1B02231E9A1A400A921E9A134202D022
:10423000002E00D000275B46002B07D0089A099B70
:1042400006980799FEF76DFE06900791002200235D
:1042500020002900FEF7C6FE002800D07CE03D4B80
:104260001E9A1340049303971C9B0293069B079C82
:104270000093019453460C9A4946404600F086F854
:10428000002E00D187E71E9B9B0671D54525441C57
:104290005346020049462800C0475A46D317D21851
:1042A0005A4005230593013E0496002303930A33E5
:1042B00002935B46DB0F019300925346220049466E
:1042C0004046FFF76CFD0A9B002B00D163E702001C
:1042D00047460C9E1D9D53E01C9B002B9DD00D9BC3
:1042E000002B9AD01C9B013B1C9396E7002798E774
:1042F000FFFFEF7FFFFFEFFF01FCFFFF0000F03F3C
:10430000FB799F501344D33FB3C8608B288AC63FC4
:104310000000F83F61436F63A787D23F71A379091B
:104320004F930A400000E03F1655B5BBB16B024009
:10433000EF39FAFE422EE63FFF03000000002C405A
:1043400000002440000018402D431CEBE2361A3FC9
:1043500080842E41FFF7FFFF069C079D2200290065
:1043600080200006844661440B000692079376E79E
:1043700065258CE7541C534649462020B847220047
:10438000931BAB42F6D3100005E7C046F0B5DE46FE
:1043900057464E464546E0B595B006900791934680
:1043A0009946209F1E9A1F9B10001900FEF735FEAC
:1043B000002831D101225242BC4B1E981F99FEF7B2
:1043C00011FE002837D101225242B94B1E981F9985
:1043D000FEF71EFE00283DD10022B64B1E981F9905
:1043E000FEF716FE00284AD10022B34B1E981F99F3
:1043F000FEF7F8FD002842D1002200231E981F99E5
:10440000FEF7F0FD00284AD100239846229B5B0569
:1044100000D4B0E0002452E0229B0393219B02933E
:1044200003230193A54B00934B465A4607990698E0
:10443000FFF7D6FB08E1229B0393219B0293042301
:1044400001939F4B00934B465A4607990698FFF7F6
:10445000C7FBF9E0229B5B070ED59A4B04222299F9
:10446000039121990291019200934B465A46079974
:104470000698FFF7B5FBE7E0934B0322EFE7229B9B
:104480000493219B039302971E9B1F9C009301940E
:104490004B465A4607990698FFF766FDD4E01E9AE8
:1044A0001F9B00200021FEF732FD1E901F9101236B
:1044B0009846ABE70CAB30221A55013F01341F2C54
:1044C00001D8092FF6D81E981F99FEF7CFFD0500D9
:1044D000FEF7B4FD02000B001E981F99FEF717FDB2
:1044E0007A4BFA009B181A685B680A920B93FEF7E6
:1044F00032FD08900991FEF7DDFD0600FEF79AFDFA
:1045000002000B0008980999FEF701FD0890099137
:1045100000226F4BFEF77CFD00282ED001363000C4
:10452000FEF788FD02000B000A980B99FEF760FD6C
:10453000002801D001350026002F2CD12800FEF7DD
:104540007DFD02000B001E981F99FEF7E0FC06009F
:104550000F0000225E4BFEF745FD002846D10022E9
:104560005B4B30003900FEF753FD00283ED1EB07CE
:104570003CD501353AE006274CE70022544B089819
:104580000999FEF72FFD0028D6D1002E01D0F307A0
:10459000D2D50136D0E7AA461F2C11D8013F0A21F7
:1045A0003000FEF779FA651C30310CAB19550A2141
:1045B0003000FEF771FA092E0ED906002C00EBE749
:1045C00055461F2C0CD87B1E002F09D00CAA302179
:1045D00011551F000134F4E72B0055461C00F0E78D
:1045E0001F2C03D80CAB2E221A5501341F2C10D8C7
:1045F0000A212800FEF728FA661C30310CAB195549
:104600000A212800FEF720FA051E01D03400EDE74C
:1046100034000323229A1340012B1CD01F2C06D8F0
:104620004346002B32D00CAB2D221A550134229B6D
:104630000393219B029301940CAB00934B465A4683
:1046400007990698FFF7CCFA15B0F0BCBB46B24606
:10465000A946A046F0BD219B002B13D04346002B5A
:1046600002D10C3313420FD0219B013B219319003F
:1046700003E00CAB30221A5501348C42CED21F2CF1
:10468000F7D9CBE72199F8E72199F6E7229B5B0759
:1046900004D50CAB2B221A550134C8E7229B1B070B
:1046A000C5D50CAB20221A550134C0E7FFFFEFFF40
:1046B000FFFFEF7F65CDCD4165CDCDC1BC9A001028
:1046C000C09A0010B09A0010B89A001008A8001004
:1046D0000000E03FF0B5DE4657464E464546E0B5A1
:1046E00093B007008A4693461193002900D12CE32A
:1046F000002508E06C1C5B462A005146B847119B18
:10470000013311932500119B1878002800D11EE376
:104710002528EFD1013311930023180020E0012355
:10472000184301321192012418E002231843013288
:104730001192012412E00423184301321192012442
:104740000CE00823184301321192012406E01023E3
:10475000184301321192012400E00024002C09D0FA
:10476000119A1378203BD9B21029F6D88B00C4498E
:10477000CB589F468146119B1A781300303BDBB221
:10478000092B10D92A2A13D00B94119B1A782E2AA0
:1047900020D0119A1378683BD9B2122965D88B00C2
:1047A000B849CB589F4611A8FFF708FA0B90ECE7E1
:1047B0001C9B1A1D1C921B68002B04DB0B93119B86
:1047C00001331193E1E702220100114389465B4264
:1047D0000B93F4E78022D2004946114389465A1CC4
:1047E00011925A781300303BDBB2092B0BD92A2ADD
:1047F000CFD11C9B1A1D1C921C68002C08DB119B3E
:1048000001331193C5E711A8FFF7D8F90400C0E7F9
:104810000024F4E780235B0049460B43511C1191AF
:1048200051786C2901D099461FE0C0239B0049466E
:10483000194389460232119217E0802349460B43FF
:10484000511C11915178682901D099460DE0C0237F
:104850004946194389460232119206E080235B00E3
:1048600049461943894601321192119B18786728ED
:104870001CD8252800D25EE20300253BDAB2422A8A
:1048800000D958E29300804AD3589F4680239B006A
:1048900049461943894601321192E6E780235B00BD
:1048A00049461943894601321192DEE7782800D93A
:1048B00041E2692800D23EE20200693AD2B2012305
:1048C0009340724A134210D11A0600D50CE25B05E0
:1048D00000D430E21C9B1A1D1C921E68002C00D0D4
:1048E000BAE101225242330096E16F2842D005D846
:1048F000582841D0622803D1022606E078283DD00E
:1049000010234A469A4391460A26582838D06928E7
:1049100005D0642803D00C224B46934399464B465E
:104920005A0502D501229343994669282DD064285F
:104930002BD04B469A0500D5AAE0DA0500D5C2E097
:104940005A0600D4D3E01C9A111D1C911168FF2255
:104950000A404B4605930B9B049303940296002355
:10496000019300925B462A0051463800FFF717FA80
:1049700005002AE00826C8E71026C6E71026C4E787
:1049800020224B4613439946C1E74B469A0520D453
:10499000DA0551D45A0666D51C9A111D1C9111686E
:1049A000FF220A40D017111841404B4605930B9B3C
:1049B000049303940296D20F019200915B462A0061
:1049C00051463800FFF7EBF90500119B01331193B5
:1049D00099E61C9A073207218A43110008311C917D
:1049E000116853689C46DB170C930D930C9A0D9B32
:1049F000100048400E900D9B61464B400F930E985F
:104A00000F990C9A0D9B801A99410E900F914B466D
:104A100008930B9B07930694049600230593634623
:104A2000DA0F0292009001915B462A00514638004D
:104A3000FFF713FA0500C8E71C9A111D1C911268B4
:104A4000D0171118414005930B9B049303940296D1
:104A5000D20F019200915B462A0051463800FFF7C1
:104A60009EF90500B1E71A0605D51C9A111D1C9187
:104A70000023D25E96E71C9A111D1C91126891E7E3
:104A800068A60010ACA60010F8A600104190000027
:104A90001C9A073207218A43110008311C910893A0
:104AA0000B9B079306940496002305930293536887
:104AB0001268009201935B462A0051463800FFF7C6
:104AC000CCF9050081E71C9A111D1C9105930B9BE5
:104AD00004930394029600230193136800935B46AA
:104AE0002A0051463800FFF75AF905006DE71A060B
:104AF00006D51C9A111D1C9112681204120C28E78D
:104B00001C9A111D1C91126823E746281AD01C9B81
:104B10000733072293431A0008321C924A46049234
:104B20000B9A039202941A685B68009201935B46A9
:104B30002A0051463800FFF729FC0500119B01337C
:104B40001193E0E520234A461A439146DFE76728A0
:104B500001D0472804D180231B014A461A439146BD
:104B6000452801D0472803D120234A461A439146BD
:104B70001C9B0733072293431A0008321C924A46B3
:104B800004920B9A039202941A685B680092019354
:104B90005B462A0051463800FFF7E6F90500119BF5
:104BA00001331193AFE502234E461E404A4613429D
:104BB0001ED001241C9B1A1D1C926A1C904618785A
:104BC0005B462A005146B847002E14D1119B013391
:104BD0001193454697E5551C5B4651462020B84742
:104BE00023002A005C1C0B999942F4D81500E1E7D8
:104BF00001232A00F6E7424606E0561C5B46514672
:104C00002020B8472C003200651C0B9BA342F4D82F
:104C10009046DBE701330A001978002902D0511EC3
:104C2000002AF7D19B1B8022D200494611408846BA
:104C30004946114202D0A34200D92300022249462C
:104C40001140109149460A4208D02A002500994691
:104C50003B004746984626E0220044E6A1462A004B
:104C60005146B2460E0006E0551C5B46310020203E
:104C7000B84723002A005C1C0B999942F4D8150010
:104C800022004C46330056469A4691462A0025009B
:104C90003B004746984606E01D000136541C5B4623
:104CA0005146C04722003078002804D0002FF4D0AD
:104CB0006B1E002DF0D115004B464746109A002A76
:104CC00003D1119B013311931DE50B9E2A0006E0D1
:104CD000551C5B4651462020B84723002A005C1C27
:104CE0009E42F5D81500ECE721234A461A431300EB
:104CF0001C9A111D1C9112680593082304930394B8
:104D0000083302930023019300925B462A00514628
:104D10003800FFF744F80500119B01331193F2E4CA
:104D20006C1C5B462A0051462520B847119B013375
:104D300011932500E7E46C1C5B462A005146B847F6
:104D4000119B013311932500DDE40A4FD0E45D454A
:104D50000DD35B465A1E5B4651460020B8472800DB
:104D600013B0F0BCBB46B246A946A046F0BD2A002F
:104D7000F1E7C046AD3B00100EB430B584B0010081
:104D800007AC08CC03940122054D00945242280040
:104D9000FFF7A0FC04B030BC08BC03B01847C04605
:104DA000A53B001010B584B00C0002A902904C6025
:104DB00001240448009313006242FFF78BFC04B007
:104DC00010BDC046AF3B001000BEFDE703000A4A1D
:104DD0001268002A08D0084A1068C318074A9A4285
:104DE00006D3054A13607047034A05491160F2E78C
:104DF00001204042F7E7C0464C1C00200000042080
:104E00004423002010B5FFF7DFFF000030B583B06A
:104E10000D001900002A0BD0074B084C019200939B
:104E20002B000200200000F063F90120FFF7CCFF07
:104E3000034B1A00F1E7C046C89A0010D89A001038
:104E40002892001010B5EFF30583002B00D000BEB0
:104E5000FDF720FD034C01E008CC9847024B9C4233
:104E6000FAD310BDF4910010FC91001010B50300AE
:104E7000080011001B68984710BD0000F8B5070036
:104E80000D001600437D002B02D0002400200CE012
:104E900003681100280098472DE03B7D10E03B6837
:104EA000154802219847601C0134B44214DA002CE2
:104EB000F3DD2B19013B1B780D3B5A425341DBB20A
:104EC0002A5D0A2AF0D1002BEED1A042E7DA3B6836
:104ED000211A28189847E2E7B04203DA3B68311AF2
:104EE00028189847002E06DDAD19013D2B780D3BA3
:104EF0005A4253413B75F8BD58A8001070B50500E3
:104F00000368002B16D00C4B1C6805E0290004C96F
:104F10002000FFF7B3FF2469002C09D02368002B81
:104F2000F9D0064B1B68002BF0D0A342F3D1EDE77C
:104F300000232B6070BDC0463C1C0020481C002094
:104F400070B505000C000B68802B05D023685A1C37
:104F50002260E418257170BD0800FFF7CFFFF5E768
:104F600010B5FDF7C3F9074A002312184B41002B77
:104F700003DB054804F0F8F810BD01225242034B50
:104F8000F7E7C04640420F0028120020FFFFFF7FD6
:104F900010B5024804F0B8F810BDC0462812002031
:104FA000F0B5CE46474680B583B006000D0090466A
:104FB0001C00FFF7D5FF81466B1C05D0002C08D0E4
:104FC000184F194B1C6807E0300003F00BFF050079
:104FD000F4E7164FF5E72469002C17D02368002B5F
:104FE000F9D0134B1B68002B01D0A342F3D12A0048
:104FF00031002000B8474346002BECD06B46D91D4A
:105000000A230B7001222000B847E4E74B46002B2F
:1050100005D1280003B0C0BCB946B046F0BDFFF7CB
:10502000B7FFF6E77D4E00103C1C00206D4E0010CF
:10503000481C00200A4A136802E01A0010321B695B
:10504000002B09D013688342F7D1002907D10369E7
:1050500013600023036102E0002900D01060704754
:105060003C1C002010B5064B1C6800E02469002C95
:1050700004D06368002BF9D09847F7E710BDC0460D
:105080003C1C002010B500F045F900F0E5FA0120C5
:1050900010BD70B5050003F0A5FE04000123012238
:1050A00001002800FFF77CFFFFF7DCFF200070BD48
:1050B000F0B5A3B004000E00FFF752FF050001AFEA
:1050C000002301930948330022003900FFF76AFEEC
:1050D00004003800FFF712FFFFF7C4FF002D02D1D4
:1050E000200023B0F0BDFFF753FFF9E7414F001058
:1050F0000FB400B583B004A901C90191FFF7D8FF2F
:1051000003B008BC04B0184710B582B00C00144BB3
:10511000C3185A425341134A5B009B5E8B4204D032
:105120006B46DA1D1470002115E06B46DA1D0D2365
:10513000137000210029F3D183699B06FCD41378F6
:10514000036001310132F5E783699B06FCD41378D3
:105150000360013101320029F6D002B010BDC04613
:105160000080FCBF1C23002082B000226B46D91DAA
:1051700006E08369DB06FCD403680B700132013161
:10518000002AF6D06B46D87902B0704770B5060099
:105190000D00002405E0315D034B1868FFF7B4FFF4
:1051A0000134AC42F7DB70BD20230020F8B50600C7
:1051B0000D00002705E07C1CF719FFF7D5FF3870BC
:1051C0002700AF4204DA0D4A10688269D206F2D590
:1051D0000B4A1268002A0AD0084A126850219163CB
:1051E000506B18390140074B9C4662441160002FF8
:1051F00001D03800F8BD033FFBE7C0462023002064
:10520000D01B00203410000010B5064B1B68002B8B
:1052100006D0054A126800219163044A1068984735
:1052200010BDC046D01B002020230020D81B00202A
:10523000024B1A6893691B07FCD470472023002097
:1052400070B51D4B1B681D4A934207D014240028DB
:105250001ED01B4B1B68002B02D070BD1524F6E737
:10526000174B1860174B196017492000FCF726F9F7
:1052700001212000FCF7EAF80F4B1B6850229A63CB
:10528000596B183A0A4011498C4663441A60E4E7A6
:105290000B4A1268002AE0D000259D6300212000FF
:1052A000FCF7D4F808492000FCF73EFA044B1D60D7
:1052B000044B1D60D1E7C04620230020008003403E
:1052C000D01B0020D81B0020095200103410000011
:1052D00070B50D001C000D4B1860002A0BDA002C75
:1052E0000EDA0A4B18682900FDF7A8F808480121D2
:1052F000FFF7A0FE70BD02211000FBF713FEEEE7E2
:1053000002212000FBF70EFEEBE7C0462023002021
:10531000700C002010B5074B1B78074B1B78074B10
:105320001B78E1210123002249020548FFF7D0FF45
:1053300010BDC04678AD001074AD001070AD001007
:105340000040034070470000014B00221A70704774
:105350003D2300204B79FF2B0CD18B79002B0BD1F7
:10536000CB79012B0AD1082A0AD98A78054B1A7001
:10537000092000E0002070470020FCE70020FAE749
:105380000020F8E73D2300200120704710B50129D7
:1053900027D1117953791B020B43134909788B42AA
:1053A00001D000201EE05378012B03D0022B11D036
:1053B000002017E09178D3781B021943DB0506D54E
:1053C000480A8A05D20F7F231940FDF72DFA0120E4
:1053D0004042F6E7642200210020FDF7C1F90120D8
:1053E00000E0012010BDC0463D230020004870476A
:1053F00040A9001010B51400012910D15378012BD9
:105400000FD1127963791B021343072B01D00020BF
:1054100006E0054A9F33210001F058FB00E001201F
:1054200010BD0020FCE7C04698A8001001230370BF
:105430000048704778A8001010B50A784B781B0216
:1054400013438A7812041A43CB781B06134396221F
:10545000D200934200D010BD012000221100404232
:10546000FDF7E2F9024B1860024B19607047C04625
:10547000D41B0020DC1B002010B5FCF737FF0E4AC0
:10548000002312184B41002B12DB0C4803F06CFE7A
:1054900000280CD001200021404201F0E3F9002057
:1054A00001F07CFC0028F5D1044803F02DFE10BD6E
:1054B00001225242024BE8E740420F001423002031
:1054C000FFFFFF7F10B5024B1878FBF7C9FF10BD37
:1054D0003E2300200268EFF3108172B61368002BA0
:1054E000FCD0BFF35F8F41607047000070B5144B74
:1054F0001B68002B1AD0124C2000FFF7EBFF114B5A
:1055000000221A7021686368BFF35F8F0A6083F31B
:105510001088002400250C4B1878FBF77DFF00282D
:1055200008D1002400252000290070BDFA24A40021
:105530000025F0E7044B1878FBF792FFF3E7C0462D
:10554000C42000203F2300203E230020F0B585B07A
:10555000060014001D000CAB1F78FCF7C7FE2200EC
:105560002B0012184B41002B09DB02970B9901917C
:105570000A9900913000FCF7E9FC05B0F0BD01226A
:105580005242014BF1E7C046FFFFFF7FF0B5C64630
:1055900000B584B00500884616001F000AAB1C78D1
:1055A000FCF76CFC0294019700962A004346FFF733
:1055B000CDFF04B080BCB846F0BD000010B582B08D
:1055C0001F48002103F0B8FD002818D11D4B1B68AF
:1055D000002B12D01B4C2000FFF77CFF1A4A1378D7
:1055E000DBB20121117021686268BFF35F8F002078
:1055F000086082F31088002B17D002B010BD012084
:105600000021404201F02EF9002001F09FFB040030
:105610000B4803F079FD002CEFD00C4B1B68002BDE
:10562000EBD00B4A10689847E7E70A4A013300932A
:105630000023FA2080000021FFF7A8FFDDE7C04625
:1056400014230020C42000203F230020D41B00206E
:10565000DC1B0020ED54001010B582B0D0231B06D7
:105660001C68FCF70BFCFCF7EBFCA04230D1274B8D
:105670001B780021002002F053F8254B1B68002BFB
:105680002CD00120FCF78EF9224C20702249FF23F8
:105690001840FBF713FF20780121FBF7D7FE052008
:1056A000FBF7FEFE041E1DD00120FBF711FE0100DA
:1056B0001A4B1800FCF7D6F9194900220520FBF710
:1056C00027FF18480121FFF7B5FC200002B010BDEC
:1056D000154B164A1648C121FFF798FB0C48FCF7FA
:1056E0007FF9CEE70D4808220021FEF74FFA114A54
:1056F000012300930023FA2080000021FFF746FFDA
:10570000C043C40F0028E0DADBE7C0467CAD0010E0
:10571000142300203E230020BD550010C42000208B
:10572000C5540010880C0020F095001070A90010DE
:10573000349B0010ED54001010B5002001F0EAFA7F
:1057400010BD000070B505000C00FFF7F5FF002844
:1057500034D0002001F0FAFA002832D0FCF7C6FD60
:105760001B4A002312184B41002B19DB194803F088
:10577000FBFC002828D0FFF7DFFF002804D0002022
:1057800001F0E4FA00280FD101200021404201F08D
:1057900069F8032464420F4803F0B6FC200070BD92
:1057A000012252420C4BE1E722002900002001F0C7
:1057B000D9FA041EEFD103246442ECE703246442C7
:1057C000ECE703246442E9E703246442E6E7C046C9
:1057D00040420F0014230020FFFFFF7FF0B5C646B4
:1057E00000B580460C00FCF781FD314A00231218F9
:1057F0004B41002B07DB2F4803F0B6FC002806D1F5
:1058000080BCB846F0BD012252422B4BF3E7FFF7B4
:1058100093FF002849D1294B0020002118605960CE
:10582000244803F071FCEBE701200021404201F025
:1058300019F8002001F0B2FAFFF77EFF0028EFD040
:10584000002001F027FB002820D0A542E8DA661BE3
:10585000002001F01FFB0200864200DC3200002A1B
:10586000E2D043465919002001F0F0FA0600012069
:105870000021404200F0F6FF002001F08FFAAD1940
:10588000FCF734FD0D4B18605960DEE7FCF72EFD88
:105890000A4B1E685F680A4A002392197B419942AD
:1058A000BED8D2D19042D0D9BAE70025CDE7C046C4
:1058B00040420F0014230020FFFFFF7FB0130020A1
:1058C00020A1070000487047ECA90010004870476D
:1058D00098A9001010B50400154B1B78002B0ED0B2
:1058E000002C11D1134B144A5A80012301335B0061
:1058F0009BB21048C02292001343038010BD0C4895
:10590000112100F025F8EBE7052C0ED80B4BA40075
:10591000E4580023122BE9D8E15C0029E6D00133DA
:10592000044A58008152DBB2F4E70020E6E7C046A3
:1059300024230020141C00200904000080A900106A
:1059400010B5024800F030F810BDC046E820002035
:1059500010B5002901D0002308E00F4B0F4A104872
:105960003531FFF753FA3732C25401334A1E9A4297
:105970000ED90F2B0CD85A080A4CA45C01229A436A
:10598000920014410F222240092AECDC3032EBE76E
:10599000C0180023037010BDC09B001000AA0010A7
:1059A000C89B0010E820002070B588B0040004AD4A
:1059B0000D2200212800FEF7E9F80D22002168469B
:1059C000FEF7E4F84B232B700D226946280003F004
:1059D00093FB002304E05A1D69468A5CE2540133BC
:1059E000072BF8DD08B070BD70B582B07F2303408F
:1059F000C509274C5E0076197601A419A07068428B
:105A0000684160700020E0702183E276012D1ED095
:105A1000D800204A944660441D4A5900491949015A
:105A2000521890601A4A590049194901521892684F
:105A300000211160002B10D1154A5B005B195B013E
:105A4000D31800225A60144ADA6002B070BDD80040
:105A5000124A94466044A060E4E7012D0BD0591E21
:105A6000C9000F4A94466144094A5B005B195B0117
:105A7000D2185160E9E7591EC9000A4A94466144A8
:105A8000034A5B005B195B01D2185160DDE7C04639
:105A9000501C002084001050000110508000105055
:105AA0000C0010500800105010B5038B3F333F22FC
:105AB0009343C27E022A08D008490A68C260D318FC
:105AC0000B60074A934202D810BD5B00F4E7054B18
:105AD000054A06485221FFF799F9C046A420002044
